{
  "_format": "hh3-artifact-1",
  "contractName": "Election",
  "sourceName": "contracts/Election.sol",
  "abi": [
    {
      "inputs": [],
      "stateMutability": "nonpayable",
      "type": "constructor"
    },
    {
      "anonymous": false,
      "inputs": [
        {
          "indexed": true,
          "internalType": "uint256",
          "name": "candidateId",
          "type": "uint256"
        },
        {
          "indexed": false,
          "internalType": "uint256",
          "name": "nullifierHash",
          "type": "uint256"
        }
      ],
      "name": "VoteCast",
      "type": "event"
    },
    {
      "inputs": [],
      "name": "admin",
      "outputs": [
        {
          "internalType": "address",
          "name": "",
          "type": "address"
        }
      ],
      "stateMutability": "view",
      "type": "function"
    },
    {
      "inputs": [
        {
          "internalType": "uint256",
          "name": "candidateId",
          "type": "uint256"
        },
        {
          "internalType": "uint256",
          "name": "nullifierHash",
          "type": "uint256"
        }
      ],
      "name": "castVote",
      "outputs": [],
      "stateMutability": "nonpayable",
      "type": "function"
    },
    {
      "inputs": [
        {
          "internalType": "uint256",
          "name": "candidateId",
          "type": "uint256"
        }
      ],
      "name": "getVotes",
      "outputs": [
        {
          "internalType": "uint256",
          "name": "",
          "type": "uint256"
        }
      ],
      "stateMutability": "view",
      "type": "function"
    },
    {
      "inputs": [
        {
          "internalType": "uint256",
          "name": "",
          "type": "uint256"
        }
      ],
      "name": "usedNullifiers",
      "outputs": [
        {
          "internalType": "bool",
          "name": "",
          "type": "bool"
        }
      ],
      "stateMutability": "view",
      "type": "function"
    },
    {
      "inputs": [
        {
          "internalType": "uint256",
          "name": "",
          "type": "uint256"
        }
      ],
      "name": "voteCounts",
      "outputs": [
        {
          "internalType": "uint256",
          "name": "",
          "type": "uint256"
        }
      ],
      "stateMutability": "view",
      "type": "function"
    }
  ],
  "bytecode": "0x6080604052348015600e575f5ffd5b50335f5f6101000a81548173ffffffffffffffffffffffffffffffffffffffff021916908373ffffffffffffffffffffffffffffffffffffffff1602179055506104de8061005b5f395ff3fe608060405234801561000f575f5ffd5b5060043610610055575f3560e01c80632c0a3f89146100595780633c3a220d14610075578063aad24061146100a5578063f851a440146100d5578063ff981099146100f3575b5f5ffd5b610073600480360381019061006e91906102b4565b610123565b005b61008f600480360381019061008a91906102f2565b61020d565b60405161009c919061032c565b60405180910390f35b6100bf60048036038101906100ba91906102f2565b610222565b6040516100cc919061035f565b60405180910390f35b6100dd61023f565b6040516100ea91906103b7565b60405180910390f35b61010d600480360381019061010891906102f2565b610263565b60405161011a919061032c565b60405180910390f35b60015f8281526020019081526020015f205f9054906101000a900460ff1615610181576040517f08c379a00000000000000000000000000000000000000000000000000000000081526004016101789061042a565b60405180910390fd5b6001805f8381526020019081526020015f205f6101000a81548160ff021916908315150217905550600160025f8481526020019081526020015f205f8282546101ca9190610475565b92505081905550817fc31875ef3ed5138b71a0c1da7e494bc4d2ba4f567084ea481ec9c45f3a93948b82604051610201919061032c565b60405180910390a25050565b6002602052805f5260405f205f915090505481565b6001602052805f5260405f205f915054906101000a900460ff1681565b5f5f9054906101000a900473ffffffffffffffffffffffffffffffffffffffff1681565b5f60025f8381526020019081526020015f20549050919050565b5f5ffd5b5f819050919050565b61029381610281565b811461029d575f5ffd5b50565b5f813590506102ae8161028a565b92915050565b5f5f604083850312156102ca576102c961027d565b5b5f6102d7858286016102a0565b92505060206102e8858286016102a0565b9150509250929050565b5f602082840312156103075761030661027d565b5b5f610314848285016102a0565b91505092915050565b61032681610281565b82525050565b5f60208201905061033f5f83018461031d565b92915050565b5f8115159050919050565b61035981610345565b82525050565b5f6020820190506103725f830184610350565b92915050565b5f73ffffffffffffffffffffffffffffffffffffffff82169050919050565b5f6103a182610378565b9050919050565b6103b181610397565b82525050565b5f6020820190506103ca5f8301846103a8565b92915050565b5f82825260208201905092915050565b7f4c6f693a20437520747269206e617920646120626f20706869657521000000005f82015250565b5f610414601c836103d0565b915061041f826103e0565b602082019050919050565b5f6020820190508181035f83015261044181610408565b9050919050565b7f4e487b71000000000000000000000000000000000000000000000000000000005f52601160045260245ffd5b5f61047f82610281565b915061048a83610281565b92508282019050808211156104a2576104a1610448565b5b9291505056fea2646970667358221220698be42cf0c5798e26e87868bc8ef635fc27a8e1718050aff200de79d65ceff164736f6c634300081c0033",
  "linkReferences": {},
  "deployedLinkReferences": {},
  "immutableReferences": {},
  "inputSourceName": "project/contracts/Election.sol",
  "buildInfoId": "solc-0_8_28-7560e42ca9703df16fe203ec1f198d76cd8b231e"
}