{
  "_format": "hh3-artifact-1",
  "contractName": "Election",
  "sourceName": "contracts/Election.sol",
  "abi": [
    {
      "inputs": [],
      "stateMutability": "nonpayable",
      "type": "constructor"
    },
    {
      "anonymous": false,
      "inputs": [
        {
          "indexed": true,
          "internalType": "uint256",
          "name": "candidateId",
          "type": "uint256"
        },
        {
          "indexed": false,
          "internalType": "uint256",
          "name": "nullifierHash",
          "type": "uint256"
        }
      ],
      "name": "VoteCast",
      "type": "event"
    },
    {
      "inputs": [],
      "name": "admin",
      "outputs": [
        {
          "internalType": "address",
          "name": "",
          "type": "address"
        }
      ],
      "stateMutability": "view",
      "type": "function"
    },
    {
      "inputs": [
        {
          "internalType": "uint256",
          "name": "candidateId",
          "type": "uint256"
        },
        {
          "internalType": "uint256",
          "name": "nullifierHash",
          "type": "uint256"
        }
      ],
      "name": "castVote",
      "outputs": [],
      "stateMutability": "nonpayable",
      "type": "function"
    },
    {
      "inputs": [
        {
          "internalType": "uint256",
          "name": "candidateId",
          "type": "uint256"
        }
      ],
      "name": "getVotes",
      "outputs": [
        {
          "internalType": "uint256",
          "name": "",
          "type": "uint256"
        }
      ],
      "stateMutability": "view",
      "type": "function"
    },
    {
      "inputs": [
        {
          "internalType": "uint256",
          "name": "",
          "type": "uint256"
        }
      ],
      "name": "usedNullifiers",
      "outputs": [
        {
          "internalType": "bool",
          "name": "",
          "type": "bool"
        }
      ],
      "stateMutability": "view",
      "type": "function"
    },
    {
      "inputs": [
        {
          "internalType": "uint256",
          "name": "",
          "type": "uint256"
        }
      ],
      "name": "voteCounts",
      "outputs": [
        {
          "internalType": "uint256",
          "name": "",
          "type": "uint256"
        }
      ],
      "stateMutability": "view",
      "type": "function"
    }
  ],
  "bytecode": "0x6080604052348015600e575f5ffd5b505f80546001600160a01b031916331790556102828061002d5f395ff3fe608060405234801561000f575f5ffd5b5060043610610055575f3560e01c80632c0a3f89146100595780633c3a220d1461006e578063aad24061146100a0578063f851a440146100d2578063ff981099146100fc575b5f5ffd5b61006c6100673660046101f0565b61011b565b005b61008d61007c366004610210565b60026020525f908152604090205481565b6040519081526020015b60405180910390f35b6100c26100ae366004610210565b60016020525f908152604090205460ff1681565b6040519015158152602001610097565b5f546100e4906001600160a01b031681565b6040516001600160a01b039091168152602001610097565b61008d61010a366004610210565b5f9081526002602052604090205490565b5f8181526001602052604090205460ff161561017d5760405162461bcd60e51b815260206004820152601c60248201527f4c6f693a20437520747269206e617920646120626f2070686965752100000000604482015260640160405180910390fd5b5f818152600160208181526040808420805460ff191684179055858452600290915282208054919290916101b2908490610227565b909155505060405181815282907fc31875ef3ed5138b71a0c1da7e494bc4d2ba4f567084ea481ec9c45f3a93948b9060200160405180910390a25050565b5f5f60408385031215610201575f5ffd5b50508035926020909101359150565b5f60208284031215610220575f5ffd5b5035919050565b8082018082111561024657634e487b7160e01b5f52601160045260245ffd5b9291505056fea2646970667358221220863360525e261489a462e37317bf6723c2f09ba0ae5816c5515da97270a6f99c64736f6c634300081c0033",
  "linkReferences": {},
  "deployedLinkReferences": {},
  "immutableReferences": {},
  "inputSourceName": "project/contracts/Election.sol",
  "buildInfoId": "solc-0_8_28-52ca1c0a16f6dead0162a99c26beda544926be12"
}